:100000000C946C000C9461050C943A050C949400CB
:100010000C9494000C9494000C9494000C94940010
:100020000C9494000C9494000C9494000C94940000
:100030000C9494000C9494000C9494000C949400F0
:100040000C94F0040C9494000C94AE050C94880568
:100050000C9494000C9494000C9494000C949400D0
:100060000C9494000C949400340436044304450426
:100070004A044C04550457045C045E04000000006C
:10008000240027002A0000000000250028002B0083
:100090000000000800020100000304070000000047
:1000A00000000000000000002300260029000404D6
:1000B0000404040404040202020202020303030310
:1000C00003030102040810204080010204081020EC
:1000D000010204081020E00511241FBECFEFD8E074
:1000E000DEBFCDBF11E0A0E0B1E0ECE7F3E102C07C
:1000F00005900D92AA31B107D9F721E0AAE1B1E04C
:1001000001C01D92A03EB207E1F710E0CCE6D0E0BE
:1001100004C02197FE010E949D09CB36D107C9F783
:100120000E942C060C94BC090C9400008F929F92A4
:10013000AF92BF92CF92DF92EF92FF92CF93DF9375
:10014000A091D501882311F03A2F01C030E08091B1
:10015000D60190E0880F991F8C559F4FC090DB010E
:10016000D090DC01E090DD01F090DE0140E050E055
:10017000BA01FC01C591D49128812A23231314C00C
:100180004A015B012FEF821A920AA20AB20A4C15A9
:100190005D056E057F0518F4B501A401EACF30E0D6
:1001A00020E080E090E003C0342F252FCB01632FA7
:1001B000722FDF91CF91FF90EF90DF90CF90BF90A3
:1001C000AF909F908F90089590E0FC01E057FF4F13
:1001D0002491FC01EE53FF4F3491FC01E255FF4F97
:1001E000E491EE2309F43CC0222339F1233091F04D
:1001F00038F42130A9F0223001F584B58F7D12C08A
:10020000273091F02830A1F02430B9F4809180009B
:100210008F7D03C0809180008F77809380000DC018
:1002200084B58F7784BD09C08091B0008F7703C0FB
:100230008091B0008F7D8093B000F0E0EE0FFF1F43
:10024000EA57FF4FA591B4919FB7F894611104C08C
:100250008C913095382302C0EC913E2B3C939FBF8C
:100260000895CF93DF9390E0FC01EE53FF4F24916C
:10027000FC01E255FF4F8491882361F190E0880FE3
:10028000991FFC01E458FF4FC591D491FC01EA5736
:10029000FF4FA591B491611109C09FB7F89488816F
:1002A000209582238883EC912E230BC0623061F469
:1002B0009FB7F8948881322F309583238883EC91FF
:1002C0002E2B2C939FBF06C08FB7F894E8812E2B5E
:1002D00028838FBFDF91CF9108953FB7F894809125
:1002E000290190912A01A0912B01B0912C0126B5F2
:1002F000A89B05C02F3F19F00196A11DB11D3FBF5E
:10030000BA2FA92F982F8827820F911DA11DB11DEB
:10031000BC01CD0142E0660F771F881F991F4A95E7
:10032000D1F708958F929F92AF92BF92CF92DF92B2
:10033000EF92FF926B017C010E946D014B015C0109
:10034000C114D104E104F104F1F00E946D01DC015B
:10035000CB0188199909AA09BB09883E9340A105D8
:10036000B10570F321E0C21AD108E108F10888EE66
:10037000880E83E0981EA11CB11CC114D104E104B5
:10038000F10419F7DDCFFF90EF90DF90CF90BF9091
:10039000AF909F908F900895CF92DF92EF92FF924F
:1003A0000F931F93CF93DF93CDB7DEB7C054D140E7
:1003B0000FB6F894DEBF0FBECDBF2FB7F894809173
:1003C0002D0190912E01A0912F01B09130012FBFEE
:1003D0004091D7015091D8016091D9017091DA0113
:1003E0008C019D01041B150B260B370BB901A801CD
:1003F000403D57406105710518F48091DF01BCC094
:100400008093D7019093D801A093D901B093DA01DA
:100410001092D2011092D1011092D0011092CF010E
:100420001092CE0161E08091D3010E94E4006AEF56
:1004300070E080E090E00E94920161E08091D30141
:100440000E94310160E08091D3010E94E40064E1E8
:1004500070E080E090E00E949201F89461E0809169
:10046000D3010E94E4008BE990E00197F1F762E08C
:100470008091D3010E94310183E290E00197F1F76E
:1004800080E00E949600672B682B692B21F4109264
:10049000DF0178943EC081E00E949600672B682BB4
:1004A000692BA9F38E010F5F1F4F6E012FEBC21A4C
:1004B0002EEFD20A780180E00E949600F701608357
:1004C00071838283938381E00E949600F7016483A5
:1004D000758386839783F8E0EF0EF11CEC14FD041E
:1004E00051F7789420E030E0F801C080D180E280BC
:1004F000F3804481558166817781C114D104E10480
:10050000F10429F0411551056105710521F410929E
:10051000DF0180E031C0F90183E0F595E7958A9528
:10052000E1F7E253FE4F8081880FC416D506E60638
:10053000F70608F4816080832F5F3F4F085F1F4FED
:100540002832310589F62091D20130E04091CE0168
:100550008091CF0190E0840F911D4091D001840FD4
:10056000911D4091D101840F911D992728173907BA
:1005700071F681E08093DF01C05CDE4F0FB6F89426
:10058000DEBF0FBECDBFDF91CF911F910F91FF90C6
:10059000EF90DF90CF9008950895CF92DF92EF9281
:1005A000FF920F931F93CF93DF936C017A018B011E
:1005B000C0E0D0E0CE15DF0581F0D8016D918D014E
:1005C000D601ED91FC910190F081E02DC6010995D5
:1005D000892B11F02196EECF7E01C701DF91CF91DB
:1005E0001F910F91FF90EF90DF90CF9008950895A5
:1005F00080E090E00895FC01538D448D252F30E07C
:10060000842F90E0821B930B541710F0CF9608951F
:1006100001970895FC01918D828D981761F0828D6C
:10062000DF01A80FB11D5D968C91928D9F5F9F7326
:10063000928F90E008958FEF9FEF0895FC01918DC8
:10064000828D981731F0828DE80FF11D858D90E035
:1006500008958FEF9FEF0895FC01918D228D892FD2
:1006600090E0805C9F4F821B91098F7399270895BA
:1006700081E391E00E942C0321E0892B09F420E022
:10068000822F0895FC01848DDF01A80FB11DA35AAC
:10069000BF4F2C91848D90E001968F739927848FA2
:1006A000A689B7892C93A089B1898C9183708064C5
:1006B0008C93938D848D981306C00288F389E02D66
:1006C00080818F7D80830895EF92FF920F931F9317
:1006D000CF93DF93EC0181E0888F9B8D8C8D9813F5
:1006E00005C0E889F989808185FD26C0F62E0B8D2D
:1006F00010E00F5F1F4F0F731127E02E8C8DE81253
:100700000CC00FB607FCFACFE889F989808185FF14
:10071000F5CFCE010E944203F1CF8B8DFE01E80F91
:10072000F11DE35AFF4FF0829FB7F8940B8FEA89CF
:10073000FB89808180620AC09FB7F894EE89FF89A7
:100740006083E889F98980818370806480839FBF9A
:1007500081E090E0DF91CF911F910F91FF90EF909A
:100760000895CF93DF93EC01888D8823C9F0EA893F
:10077000FB89808185FD05C0A889B9898C9186FD9A
:100780000FC00FB607FCF5CF808185FFF2CFA88997
:10079000B9898C9185FFEDCFCE010E944203E7CF4E
:1007A000DF91CF91089580E090E0892B29F00E949D
:1007B000380381110C94000008958FB7F89440918C
:1007C0002D0150912E0160912F01709130018FBF4A
:1007D00080911A0190911B01A0911C01B0911D0103
:1007E0008A569F4FAF4FBF4F84179507A607B7078D
:1007F00030F580911E0190911F01009739F481E03E
:1008000090E090931F0180931E0106C0019721F490
:1008100010921F0110921E012FB7F89480912D01A4
:1008200090912E01A0912F01B09130012FBF8093A4
:100830001A0190931B01A0931C01B0931D01089510
:100840001F93CF93DF938A30910508F049C0C62FDC
:10085000FC01EC5CFF4F83E0860F15E0160FD7E03C
:10086000D60FC75F0C949D0960E001C061E00E9453
:10087000E40060E0812F0E94E40060E08D2F0E9480
:10088000E40060E027C060E001C061E00E94E40095
:1008900061E0F0CF60E001C061E00E94E40060E050
:1008A000812F0E94E40061E0E9CF60E001C061E0D7
:1008B0000E94E40061E0F4CF60E001C061E00E94CA
:1008C000E40060E0812F0E94E40060E08D2F0E9430
:1008D000E40061E08C2FDF91CF911F910C94E40034
:1008E000DF91CF911F9108958F929F92AF92BF9207
:1008F0000F931F93CF93DF93CDB7DEB7A1970FB6BA
:10090000F894DEBF0FBECDBF19A2423008F44AE012
:100910008E010F5D1F4F842E912CA12CB12CA501AF
:1009200094010E947B09E62FB901CA010150110907
:10093000EA3014F4E05D01C0E95CD801EC93232BAC
:10094000242B252B61F70115110571F0F801019099
:100950000020E9F73197AF01401B510BB80181E34B
:1009600091E00E94CD0202C080E090E0A1960FB617
:10097000F894DEBF0FBECDBFDF91CF911F910F91D5
:10098000BF90AF909F908F900895CF92DF92EF929B
:10099000FF92CF93DF936B017C016DE281E391E0E5
:1009A0000E946403EC0166277727CB016C197D094F
:1009B0008E099F094AE00E9474048C0F9D1FDF91ED
:1009C000CF91FF90EF90DF90CF90089542E050E0FC
:1009D00066E171E081E391E00C94CD020E94B709D9
:1009E0001F920F920FB60F9211242F933F938F9364
:1009F0009F93AF93BF9380912D0190912E01A09171
:100A00002F01B09130013091280123E0230F2D37C1
:100A100020F40196A11DB11D05C026E8230F029602
:100A2000A11DB11D2093280180932D0190932E01CB
:100A3000A0932F01B09330018091290190912A0158
:100A4000A0912B01B0912C010196A11DB11D8093A5
:100A5000290190932A01A0932B01B0932C01BF91FF
:100A6000AF919F918F913F912F910F900FBE0F905B
:100A70001F9018951F920F920FB60F9211242F936B
:100A80003F934F935F936F937F938F939F93AF9316
:100A9000BF93EF93FF93E0910201F0910301099559
:100AA000FF91EF91BF91AF919F918F917F916F9146
:100AB0005F914F913F912F910F900FBE0F901F901C
:100AC00018951F920F920FB60F9211242F933F93F8
:100AD0004F935F936F937F938F939F93AF93BF9346
:100AE000EF93FF93E0910001F09101010995FF91CF
:100AF000EF91BF91AF919F918F917F916F915F9196
:100B00004F913F912F910F900FBE0F901F9018950E
:100B10001F920F920FB60F9211242F933F934F9372
:100B20005F936F937F938F939F93AF93BF93EF9355
:100B3000FF9381E391E00E944203FF91EF91BF9107
:100B4000AF919F918F917F916F915F914F913F9165
:100B50002F910F900FBE0F901F9018951F920F921C
:100B60000FB60F9211242F938F939F93EF93FF93C0
:100B7000E0914101F09142018081E0914701F091C3
:100B8000480182FD12C0908180914A018F5F8F736E
:100B900020914B01821751F0E0914A01F0E0EF5CA7
:100BA000FE4F958F80934A0101C08081FF91EF91A4
:100BB0009F918F912F910F900FBE0F901F901895BE
:100BC000E1E3F1E01382128288EE93E0A0E0B0E06E
:100BD00084839583A683B78388E091E091838083A3
:100BE00085EC90E09587848784EC90E097878687F2
:100BF00080EC90E0918B808B81EC90E0938B828BEA
:100C000082EC90E0958B848B86EC90E0978B868BC2
:100C1000118E128E138E148EAEECB1E08BE0159611
:100C20008C93159716968C931697EDECF0E0E49163
:100C30001796EC931797E9EBF0E0E4911896EC9394
:100C4000189740E85EE360E070E01D964D935D9379
:100C50006D937C9350970895789484B5826084BD99
:100C600084B5816084BD85B5826085BD85B58160B0
:100C700085BD80916E00816080936E00109281002E
:100C800080918100826080938100809181008160E9
:100C900080938100809180008160809380008091AA
:100CA000B10084608093B1008091B0008160809336
:100CB000B00080917A00846080937A0080917A00FD
:100CC000826080937A0080917A00816080937A00BC
:100CD00080917A00806880937A001092C10062E06F
:100CE0008091D3010E94310180E398EFAFEFBFEF15
:100CF0008093D7019093D801A093D901B093DA01E2
:100D0000E0914101F091420182E08083E0913D0158
:100D1000F0913E011082E0913F01F09140018FEC93
:100D2000808310924901E0914501F091460186E0EF
:100D30008083E0914301F091440180818061808350
:100D4000E0914301F0914401808188608083E091CB
:100D50004301F0914401808180688083E0914301E8
:100D6000F091440180818F7D808362E082E00E9467
:100D7000310161E083E00E94310161E084E00E9482
:100D8000310161E085E00E94310161E086E00E946E
:100D9000310161E087E00E94310161E088E00E945A
:100DA000310161E089E00E94310161E08AE00E9446
:100DB00031018DED93E090930101809300018091CA
:100DC00069008C7F826080936900E89ACAE0D0E075
:100DD00060ED77E080E090E00E9492010E94CC01FB
:100DE000882389F18091D4018B3029F160F18551FC
:100DF000823048F56091CE0170E080E090E00E9482
:100E00006C0820E030E040E853E40E94FA086B01EF
:100E10007C016091CF0170E080E090E00E946E085C
:100E2000A70196010E94CA072DEC3CEC4CEC5DE357
:100E30000E94FA080CC06091CE0170E080E090E062
:100E40000E946C0804C060E070E080EC9FE70E94A4
:100E500036088B0170932701609326010E94CC0114
:100E60008823B9F18091D4018B3029F090F185511C
:100E7000823048F02EC06091D00170E080E090E0B8
:100E80000E946C082AC0B090D0016B2D6F7770E083
:100E900080E090E00E946E0820E030E040E853E4FB
:100EA0000E94FA086B017C016091D10170E080E042
:100EB00090E00E946E08A70196010E94CA072DECDF
:100EC0003CEC4CEC5DE30E94FA08B7FE06C090587B
:100ED00004C060E070E080EC9FE70E9436086B0180
:100EE0007C017093250160932401CB01BE010E9417
:100EF00067095B019C017093230160932201C80183
:100F0000BE010E9467098B0170932101609320014B
:100F100040911E0150911F014115510549F460E0B7
:100F200070E0C9010E94200461E070E0C5010AC0C0
:100F30004130510549F460E070E00E94200461E016
:100F400070E0C8010E942004B601DD0C880B990BEB
:100F500097FF03C00E94C50403C04AE00E947404C6
:100F60000E94E6046091260170912701072E000C73
:100F7000880B990B97FF03C00E94C50403C04AE089
:100F80000E9474040E94E6040E94E6040E94D303B7
:100F90001FCF5058BB27AA270E94E1070C94C00816
:100FA0000E94B20838F00E94B90820F039F49F3F3F
:100FB00019F426F40C94AF080EF4E095E7FB0C94BA
:100FC000A908E92F0E94D10858F3BA1762077307DE
:100FD0008407950720F079F4A6F50C94F3080EF435
:100FE000E0950B2EBA2FA02D0B01B90190010C0139
:100FF000CA01A0011124FF27591B99F0593F50F451
:10100000503E68F11A16F040A22F232F342F4427A8
:10101000585FF3CF469537952795A795F0405395A0
:10102000C9F77EF41F16BA0B620B730B840BBAF070
:101030009150A1F0FF0FBB1F661F771F881FC2F7DB
:101040000EC0BA0F621F731F841F48F487957795EF
:101050006795B795F7959E3F08F0B0CF9395880FA9
:1010600008F09927EE0F9795879508950E943D08FF
:101070006894B1110C94F40808950E94D90888F07E
:101080009F5798F0B92F9927B751B0F0E1F0660F4C
:10109000771F881F991F1AF0BA95C9F714C0B1308D
:1010A00091F00E94F308B1E008950C94F308672FC3
:1010B000782F8827B85F39F0B93FCCF386957795BC
:1010C0006795B395D9F73EF49095809570956195A5
:1010D0007F4F8F4F9F4F0895E89409C097FB3EF4D0
:1010E00090958095709561957F4F8F4F9F4F992375
:1010F000A9F0F92F96E9BB279395F69587957795F3
:101100006795B795F111F8CFFAF4BB0F11F460FFB2
:101110001BC06F5F7F4F8F4F9F4F16C0882311F00A
:1011200096E911C0772321F09EE8872F762F05C01E
:10113000662371F096E8862F70E060E02AF09A95B9
:10114000660F771F881FDAF7880F9695879597F9AE
:10115000089597F99F6780E870E060E008959FEF39
:1011600080EC089500240A9416161706180609063E
:10117000089500240A94121613061406050608950D
:10118000092E0394000C11F4882352F0BB0F40F495
:10119000BF2B11F460FF04C06F5F7F4F8F4F9F4FD5
:1011A000089557FD9058440F551F59F05F3F71F057
:1011B0004795880F97FB991F61F09F3F79F08795BE
:1011C0000895121613061406551FF2CF4695F1DF47
:1011D00008C0161617061806991FF1CF86957105D7
:1011E000610508940895E894BB2766277727CB010B
:1011F00097F908950E940D090C94C0080E94B20846
:1012000038F00E94B90820F0952311F00C94A90839
:101210000C94AF0811240C94F4080E94D10870F3C8
:10122000959FC1F3950F50E0551F629FF001729F8B
:10123000BB27F00DB11D639FAA27F00DB11DAA1F9A
:10124000649F6627B00DA11D661F829F2227B00DE7
:10125000A11D621F739FB00DA11D621F839FA00D72
:10126000611D221F749F3327A00D611D231F849FC2
:10127000600D211D822F762F6A2F11249F57504019
:101280009AF0F1F088234AF0EE0FFF1FBB1F661F94
:10129000771F881F91505040A9F79E3F510580F05D
:1012A0000C94A9080C94F4085F3FE4F3983ED4F33F
:1012B000869577956795B795F795E7959F5FC1F701
:1012C000FE2B880F911D9695879597F9089597FBAA
:1012D000072E16F4009407D077FD09D00E94A309C9
:1012E00007FC05D03EF4909581959F4F0895709529
:1012F00061957F4F0895A1E21A2EAA1BBB1BFD0129
:101300000DC0AA1FBB1FEE1FFF1FA217B307E407E4
:10131000F50720F0A21BB30BE40BF50B661F771F3C
:10132000881F991F1A9469F760957095809590951C
:101330009B01AC01BD01CF010895EE0FFF1F059089
:10134000F491E02D0994AA1BBB1B51E107C0AA1F11
:10135000BB1FA617B70710F0A61BB70B881F991F56
:101360005A95A9F780959095BC01CD01089581E02B
:0C13700090E0F8940C94BC09F894FFCFB6
:10137C00CC02CC02000000006403CD02FB02B103DE
:0A138C002C030A031E030D0A0000E3
:107E0000112484B714BE81FFF0D085E080938100F7
:107E100082E08093C00088E18093C10086E0809377
:107E2000C20080E18093C4008EE0C9D0259A86E02C
:107E300020E33CEF91E0309385002093840096BBD3
:107E4000B09BFECF1D9AA8958150A9F7CC24DD24C4
:107E500088248394B5E0AB2EA1E19A2EF3E0BF2EE7
:107E6000A2D0813461F49FD0082FAFD0023811F036
:107E7000013811F484E001C083E08DD089C08234E0
:107E800011F484E103C0853419F485E0A6D080C0E4
:107E9000853579F488D0E82EFF2485D0082F10E0AE
:107EA000102F00270E291F29000F111F8ED06801E7
:107EB0006FC0863521F484E090D080E0DECF843638
:107EC00009F040C070D06FD0082F6DD080E0C81688
:107ED00080E7D80618F4F601B7BEE895C0E0D1E017
:107EE00062D089930C17E1F7F0E0CF16F0E7DF06D8
:107EF00018F0F601B7BEE89568D007B600FCFDCFD4
:107F0000A601A0E0B1E02C9130E011968C91119780
:107F100090E0982F8827822B932B1296FA010C0160
:107F200087BEE89511244E5F5F4FF1E0A038BF0790
:107F300051F7F601A7BEE89507B600FCFDCF97BE46
:107F4000E89526C08437B1F42ED02DD0F82E2BD052
:107F50003CD0F601EF2C8F010F5F1F4F84911BD097
:107F6000EA94F801C1F70894C11CD11CFA94CF0C13
:107F7000D11C0EC0853739F428D08EE10CD085E9AC
:107F80000AD08FE07ACF813511F488E018D01DD067
:107F900080E101D065CF982F8091C00085FFFCCF94
:107FA0009093C60008958091C00087FFFCCF809118
:107FB000C00084FD01C0A8958091C6000895E0E648
:107FC000F0E098E1908380830895EDDF803219F02E
:107FD00088E0F5DFFFCF84E1DECF1F93182FE3DFCA
:107FE0001150E9F7F2DF1F91089580E0E8DFEE27F6
:047FF000FF270994CA
:027FFE00040479
:0400000300007E007B
:00000001FF
